:020000040800F2
:10000000203801204D030008F55000087B3100081E
:10001000F1500008B3060008215B00080000000052
:100020000000000000000000000000008D02000839
:10003000090B000800000000E9020008855A0008CA
:1000400067030008670300086703000867030008E8
:1000500067030008670300086703000867030008D8
:1000600067030008670300086703000867030008C8
:1000700067030008B906000867030008F9060008CE
:1000800067030008670300086703000867030008A8
:100090006703000867030008670300086703000898
:1000A0006703000867030008670300086703000888
:1000B0006703000867030008670300086703000878
:1000C0006703000867030008670300086703000868
:1000D0006703000867030008670300086703000858
:1000E0006703000867030008670300086703000848
:1000F0006703000867030008670300086703000838
:100100006703000867030008670300086703000827
:100110006703000867030008670300086703000817
:100120006703000867030008670300086703000807
:1001300067030008670300086703000867030008F7
:1001400067030008670300086703000867030008E7
:1001500067030008670300086703000867030008D7
:1001600067030008670300086703000867030008C7
:1001700067030008670300086703000867030008B7
:1001800067030008670300086703000867030008A7
:100190006703000867030008670300086703000897
:1001A00067030008670300086703000800F002F80F
:1001B00000F05CF80AA090E8000C82448344AAF1A5
:1001C0000107DA4501D100F051F8AFF2090EBAE8A3
:1001D0000F0013F0010F18BFFB1A43F0010318477B
:1001E000481C0100781C01000A444FF0000C10F874
:1001F000013B13F0070408BF10F8014B1D1108BFA5
:1002000010F8015B641E05D010F8016B641E01F844
:10021000016BF9D113F0080F1EBF10F8014BAD1C94
:100220000C1B09D16D1E58BF01F801CBFAD505E0B2
:1002300014F8016B01F8016B6D1EF9D59142D6D30C
:10024000704700000023002400250026103A28BF34
:1002500078C1FBD8520728BF30C148BF0B60704738
:100260001FB50AF0DBFD1FBD10B510BD00F0E7F9AA
:100270001146FFF7F5FF08F081FC00F005FA03B422
:10028000FFF7F2FF03BC00F00DFA00002C4B1968D9
:100290000868B0E8F04F80F30988BFF36F8F4FF024
:1002A000000080F3118870470000000008480068D3
:1002B000006880F308884FF0000080F3148862B66D
:1002C00061B6BFF34F8FBFF36F8F00DF00BF00BF7A
:1002D00008ED00E0DFF80C00016841F470010160F6
:1002E000704700BF88ED00E0EFF30980BFF36F8F28
:1002F000134B1A681EF0100F08BF20ED108A20E97A
:10030000F04F106009B44FF0500080F31188BFF334
:100310004F8FBFF36F8F09F0C1FD4FF0000080F3E6
:10032000118809BC19680868B0E8F04F1EF0100F7A
:1003300008BFB0EC108A80F30988BFF36F8F704755
:100340009C000020EFF305807047000009488047BB
:1003500009480047FEE7FEE7FEE7FEE7FEE7FEE7A7
:10036000FEE7FEE7FEE7FEE704480549054A064BBF
:1003700070470000B95A0008AD0100082032012082
:10038000203801202034012020340120032A40F2AB
:10039000308010F0030C00F0158011F8013BBCF127
:1003A000020F624498BF11F801CB00F8013B38BF3F
:1003B00011F8013BA2F1040298BF00F801CB38BF4D
:1003C00000F8013B11F0030300F06B80083AC0F025
:1003D000088051F8043B083A51F804CBA0E8081013
:1003E000F5E7121D5CBF51F8043B40F8043BAFF346
:1003F0000080D20724BF11F8013B11F801CB48BFA0
:1004000011F8012B24BF00F8013B00F801CB48BFD5
:1004100000F8012B7047431A28BF9A427FF6B6AF07
:10042000032A1044114440F2268010F0030F1EBF2F
:1004300011F8013D521E00F8013D10F0030F7FF44A
:10044000F6AF11F0030300F0AE80083AC0F00B8065
:1004500051F8043D083A51F804CD40F8043D40F805
:1004600004CDFFF7F3BF121D5CBF51F8043D40F807
:10047000043DAFF30080D20724BF11F8013D11F80D
:1004800001CD48BF11F8012C24BF00F8013D00F850
:1004900001CD48BF00F8012C704701B5FFF776FF8A
:1004A00001BD10B5203AC0F00B80B1E81850203AD9
:1004B000A0E81850B1E81850A0E81850BFF4F5AF04
:1004C0005FEA027C24BFB1E81850A0E8185044BF8E
:1004D00018C918C0BDE810405FEA827C24BF51F8FB
:1004E000043B40F8043B08BF7047D20728BF31F8EF
:1004F000023B48BF11F8012B28BF20F8023B48BF40
:1005000000F8012B704701F0FF03114601B543EAE3
:10051000032242EA024200F072F801BD02F0FF033A
:1005200043EA032242EA024200F069B84FF00002B7
:1005300000B5134694469646203922BFA0E80C50D9
:10054000A0E80C50B1F12001BFF4F7AF090728BFB4
:10055000A0E80C5048BF0CC05DF804EB890028BF30
:1005600040F8042B08BF704748BF20F8022B11F059
:10057000804F18BF00F8012B7047704770477047D5
:10058000431A28BF9A427FF68CAF104410F0030F35
:1005900011441EBF11F8013D521E00F8013D10F03C
:1005A000030F7FF4F6AF103AC0F00A8010B531E9BE
:1005B0001850103A20E91850BFF4F9AFBDE81040C8
:1005C000530724BF31E9081020E9081044BF51F84F
:1005D000043D40F8043D12F0030F08BF7047D207F6
:1005E00028BF31F8023D48BF11F8012C28BF20F880
:1005F000023D48BF00F8012C70474FF0000204296B
:10060000C0F0128010F0030C3FF492AFCCF1040C58
:10061000BCF1020F18BF00F8012BA8BF20F8022B75
:10062000A1EB0C01FFF784BF5FEAC17C24BF00F897
:10063000012B00F8012B48BF00F8012B70477546CD
:1006400000F02CF8AE4605006946534620F007003E
:10065000854618B020B5FFF787FEBDE820404FF073
:1006600000064FF000074FF000084FF0000B21F09C
:100670000701AC46ACE8C009ACE8C009ACE8C00969
:10068000ACE8C0098D46704710B50446AFF3008052
:100690002046BDE81040FFF7F2BD0000004870475B
:1006A000C031012001491820ABBEFEE72600020040
:1006B000704700BFFEE7000010B54FF081510B48B6
:1006C00000F0B6F980B10121094802F0B9FD00211E
:1006D000064800F0F5F84FF08151044800F0D6F8D4
:1006E000002004490968088010BD000040600240F5
:1006F000005C00404C00002010B51449144800F084
:1007000097F910B30021124800F0DAF80F491048A9
:1007100000F0BCF84FF420400E49086007E00D4996
:100720000868411E0B4A116008B909F0CFF80A4960
:100730000A4802F091FD0028F1D00121074802F09B
:100740007FFD002006490968087010BD20000020C8
:10075000706002404800002004000010005C00406F
:100760005000002010B50121C80504F011FD002142
:100770004FF4000004F00CFD10BD00000146002005
:10078000034A52680A400AB1012000E00020704785
:1007900000B0024070B50021002200230024344D37
:1007A0002D68344E3540324E356035462D6806682A
:1007B00035432F4E356035466D6B25F00705756363
:1007C00035466D6B46683543294E7563456835B9C6
:1007D000C5682902058A2A04057D2B0621E04568A3
:1007E000012D05D1C5682902058A2A04002318E0D5
:1007F0004568022D05D1C56869010569EA02002333
:100800000FE04568032D06D1C56869010569AA0294
:100810004569EB0305E0C568290105692A024569B8
:100820002B0341EA0205866835431D43104EB66B23
:1008300035430F4EB5638569F56335462D6C6FF30F
:100840000D05356435462D6CC6693543084E356453
:10085000858C2C0435466D6C05F040457564354635
:100860006D6C066A26433543014E756470BD000009
:1008700000B00240FCE0FCFF0348006840F00100CB
:10088000014908607047000000B002400246094B71
:100890009A4201D2084801E00648103801F000539E
:1008A0001BB1064B0B40C36002E0044B0B4083605E
:1008B0007047000010640240006002407D0F7D0F11
:1008C00021B1026842F00102026003E0026822F0F6
:1008D0000102026070470000016821F0010101601F
:1008E0000021016041608160C1600161212141619D
:1008F0004A49884204D13D21484A103A91608CE02F
:1009000046491831884205D14FF47461434A103A80
:10091000916082E041493031884205D14FF4741131
:100920003E4A103A916078E03C494831884205D10E
:100930004FF07461394A103A91606EE03749603186
:10094000884204D13649354A103AD16065E03349CE
:100950007831884204D13349304A103AD1605CE0A2
:100960002E499031884204D12F492C4A103AD16047
:1009700053E02A49A831884205D14FF03D51274A1A
:10098000103AD16049E02949884204D13D21274AE3
:10099000083A116041E025491831884205D14FF4E9
:1009A0007461224A083A116037E0204930318842A8
:1009B00005D14FF474111D4A083A11602DE01B490E
:1009C0004831884205D14FF07461184A083A1160E5
:1009D00023E016496031884204D11149134A121F9D
:1009E00011601AE011497831884204D10D490F4A4B
:1009F000121F116011E00D499031884204D10A495B
:100A00000A4A121F116008E00849A831884204D13F
:100A10004FF03D51054A121F1160704710600240AF
:100A20003D000020400F002000003D2010640240E7
:100A300030B503460A46002000240B4DAB4201D2DC
:100A40000A4901E00849103902F000550DB14C681F
:100A500000E00C68064D2C4004EA02050DB10120AF
:100A600000E0002030BD0000106402400060024041
:100A70007D0F7D0F10B501F080034BB122B14369AA
:100A800043F08003436103E0436923F08003436143
:100A900080290BD02AB1036801F01E0423430360B0
:100AA00004E0036801F01E04A343036010BD0000CE
:100AB00010B500220268134B1A40CC680B68234320
:100AC0004C6923438C692343CC6923430C6A234339
:100AD0004C6A23438C6A23434C6B23438C6B234324
:100AE0001A430260426922F00702D1E90B34234322
:100AF0001A4342610B6943604B6883608B68C36033
:100B000010BD00003F801CF0704700000021234909
:100B10008279002A3AD00A46126803689A430B4643
:100B20001A600A1D126803689A430B1D1A60027945
:100B300011440A6803681A430A60184A08321268A6
:100B400003689A43154B08331A601A1D126803682C
:100B50009A43124B0C331A604279102A0ED11A1F95
:100B6000126803681A430D4B08331A601A1D126885
:100B700003681A43094B0C331A600DE007494279A8
:100B800011440A6803681A430A6005E002791144B7
:100B90000A6803689A430A6070470000003C0140FD
:100BA00010B5024600200023102A03D14FF0204444
:100BB000636E0FE0B2F5807F02D10A4C236809E032
:100BC000B2F5805F03D1074C2034236802E0054C66
:100BD000D434236803EA01048C4201D0002000E0F1
:100BE000012010BD840000A00021D0E900231A4399
:100BF00083685B1E42EA4312C36842EA4321014A0A
:100C000011607047500100A070B500210022002340
:100C10000024D0E901563543C6683543066935439B
:100C20004669354386693543C6693543066A3543A7
:100C3000466A45EA0601056835B90568AD00A5F1C3
:100C4000C045C5F840110DE0D0E907563543466A66
:100C500045EA0603294D2B600568AD00A5F1C045A6
:100C6000C5F84011056835BB856A2D686D1E866A1A
:100C70007668761E45EA0616856AAD686D1E46EAF8
:100C80000526856AED686D1E46EA0536856A2D8A59
:100C90006D1E46EA0546856AAD8A6D1E46EA055612
:100CA000856A2D7E6D1E46EA0562144D083506687C
:100CB00045F8262020E0856A2D686D1E866A7668D4
:100CC000761E45EA0616856AAD686D1E46EA05265B
:100CD000856A2D8A6D1E46EA0542856AED686D1E9D
:100CE0002E03856AAD8A6D1E46EA0554034D08350C
:100CF0002C60066845F8262070BD0000400100A069
:100D00000449096841EA40014FF02042C2F85411F9
:100D100070470000540100A02DE9F84F0F46DDF8A0
:100D200028900646941BA3EB0708D9F800504FF013
:100D3000000A54EA080063D0002CD4BF6042204669
:100D4000B8F1000FCCBF4146C8F1000188420ADA71
:100D500020464446804630463E46074610461A46E0
:100D600003464FF0010A002CCCBF20466042A0424F
:100D700008BF012008D03046164602466442C8F13A
:100D800000081F464FF0FF300090C448C449B8F136
:100D9000000FD0F800C01CBF04EBD4724FEA620B06
:100DA000B8BFCBF1000B30D09CF81A20002A00F01D
:100DB000FA80009A002ABCBF2A19C9F80020002531
:100DC000002CC0F2458100BF08FB05B090FBF4F099
:100DD000C219D9F8001000980844B049C9F80000B9
:100DE00009688B7E012B00F00081022B00F0078147
:100DF000032B00F00D81042B00F03A8100F019B9AB
:100E00003046BDE8F84F00F08DBABAF1000F62D05D
:100E10009CF81AC0BCF1000F14D04FF00008002C51
:100E2000A4BF8A46834640DBDBF8001028466D1CD1
:100E30008A7E012A0CD0022A14D0032A1BD0042A4D
:100E400035D027E031463846BDE8F84F03F0DAB830
:100E5000801DC21700EB127222F00F02801A0C28BC
:100E60001FDB17E0C21700EB927222F00302801A18
:100E7000022816DB0EE08AFB0032D310A3EBE272ED
:100E8000524202EB820200EB82000C2809DB103890
:100E9000022806D3496E06EB08004A680146384628
:100EA000904708F10108A045BEDD681EDCE07D4AE0
:100EB00082FB00329310A3EBE272A2EB820200EB02
:100EC000C2000C28EDDBA0F11002022A24BF143866
:100ED0000228E6D3DEE79CF81A80B8F1000F14D0A0
:100EE0004FF00008002CA4BF8A46834642DBDBF8A3
:100EF000001028466D1C8A7E012A0FD0022A17D0C6
:100F0000032A1ED0042A3AD02AE0DCF864003946CD
:100F1000036801B03046BDE8F04F1847801DC21786
:100F200000EB127222F00F02801A0C281EDB17E071
:100F3000C21700EB927222F00302801A022815DB1E
:100F40000EE08AFB0032D310A3EBE272524202EBB6
:100F5000820200EB82000C2808DB1038022805D33F
:100F6000496E06EB08004A683946904708F10108C7
:100F7000A045BCDD681EC9F80000BDE8F88F494AED
:100F800082FB00329310A3EBE272A2EB820200EB31
:100F9000C2000C28EADBA0F11002022A24BF143898
:100FA0000228E3D3DCE70025002CACBF8146BDE876
:100FB000F88F00BF08FB05B090FBF4F03844BAF19D
:100FC000000F0AD0D9F800207119526E526890476C
:100FD0006D1CA542EEDDBDE8F88FD9F8001073193D
:100FE000496E4A6801461846F1E7801DC31700EBB9
:100FF000137323F00F03C01A0C2825DB19E0C31765
:1010000000EB937323F00303C01A02281CDB10E0EB
:10101000234B83FB00C34FEAE30CACEBE3735B426F
:1010200003EB830300EB83000C280DDB1038022850
:101030000AD3496EBAF1000F06EB05004B680EBFEC
:1010400011460146104698476D1CA5427FF7BCAE7D
:101050000098002804DAD9F800002044C9F80000FC
:10106000D9F800100098081AC9F80000BDE8F88FF8
:101070000C4B83FB00C34FEAA30CACEBE373A3EB75
:10108000830300EBC3000C28DEDBA0F11003022B6E
:1010900024BF14380228D7D3CBE700002C0100204E
:1010A00067666666ABAAAA2A2DE9F047DFF8689260
:1010B000804684B0D9F800000F460C99007E1D468A
:1010C0001646012800F0CE80A8EB060C7C1B5CEADB
:1010D000040104BF04B0BDE8F087421E0021BCF14A
:1010E000000FBCBF0121CCF1000C002CBCBF41F0B3
:1010F00002016442644504DD20466446844641F0B2
:101100000401A0020CEBDC7300EB630090FBFCF02D
:101110008010824C4FEA201C00F00F0034F81C3085
:10112000C0F1100013FB00F3102807D004EB4C0CA7
:10113000C0F11000BCF802C01CFB003303F1080032
:10114000C31700EB1370001111F0040F18BFC0F5A6
:10115000806011F0010F18BFC0F5006011F0020FA0
:1011600018BFC0F5805000F5806100F50060C0F345
:101170000B004FF0000AB0F5006FC4BF4FF0010A3A
:10118000A0F50060B0F5806FC8BFC0F500604FEA01
:10119000A01C634B00F03F00C0F1400033F81C403E
:1011A0004443402818BFBCF1100F07DA03EB4C0C86
:1011B000C0F14000BCF802C00CFB004404F1200068
:1011C0008009BAF1000F18BF404200FB02FC002466
:1011D000C1F30B00B0F5006FC4BF0124A0F500609F
:1011E000B0F5806FC8BFC0F50060811100F03F000E
:1011F000C0F1400033F811A040280AFB00FA18BFE4
:10120000102906DA03EB4101C0F14000498801FBD7
:1012100000AA0AF120008009002C18BF404200FB00
:1012200002F1BCF1000FB4BFCCF500700CF50070FA
:101230004FEAA020B8BF40420029BDBFC1F50071F0
:101240008912C1F1000C01F50071A8BF4FEAA12C71
:1012500000280FDD411C01EBD171491000EBD0706B
:1012600042100EE0009139464046FFF755FD04B0AC
:10127000BDE8F08700EBD071401E491000EBD07044
:101280004210BCF1000FC6BF0CF1010000EBD070A2
:101290000CEBDC704FEA6000CEBF0CEBDC73ACF102
:1012A000010303EBD3735B1008EB010CADF800C036
:1012B00007EB000CADF802C0A8EB020CB21AADF8B7
:1012C00004C0ADF808203144A7EB030CEA1AADF8CE
:1012D0000C102844ADF80A20ADF80E000023ADF83C
:1012E00006C01A460421684600F08EF8D9F800209E
:1012F00040463946527E002A08BF00F013F83046B7
:10130000D9F800202946527E002A08BF00F00AF8CA
:1013100004B0BDE8F08700002C01002072D800085E
:1013200050D80008064A13681A7E012A05D0521EBA
:1013300002EBD272521000F005B85A6E5268104794
:101340002C0100202DE9F84F06460F4640F2C3203D
:1013500050434FF47A7190FBF1F000F1010A02FB67
:1013600002F002EBD271DFF89C8000EB610000908C
:10137000D8F8001014463244496E301B0B683946C9
:1013800098470125BAF1010FB8BFBDE8F88F00BF3B
:1013900005FB05F004FB0400009988421ADD544562
:1013A00017DDD8F8003006EB050BA6EB05095B6EE0
:1013B000ABF1010239191B6809F101009847D8F80F
:1013C0000030ABF10102391B5B6E09F101001B68B3
:1013D0009847641ED8F80030321979195B6E301BBB
:1013E00093461B6881469847D8F800305A46791BC7
:1013F0005B6E48461B6898476D1CAA45C8DABDE875
:10140000F88F00002C0100202DE9FF4F83B0074624
:1014100043F6FF74C4F1000090460E1E0090C4BF56
:10142000BA1C08460EDD00BFB2F90010A142D8BFB9
:101430000C46009B9942D8BF19460091401E02F10C
:101440000402F1D18C490868406970B1B0F90630E6
:10145000069A9B1A009A9342C0F20281B0F90230B8
:10146000069A9A1AA24200F3018100988442D2BFE0
:10147000A6F1010907B0BDE8F08F00207F490546BD
:10148000002E0860C4BF069804EB000A7EDD4D45BF
:10149000B4BF6A1C002207EB850C07EB8201BCF984
:1014A0000200B1F90230A04255D1A34213D137F95D
:1014B0002500514600EB080337F922006E4A4044EC
:1014C00083421268526ED2F800C0BABF0246184674
:1014D0001A46E04787E000222946B9F1000F0CDDEB
:1014E000002914BF491E711E07EB8100B0F90200EC
:1014F000A04203D1521C4A45F2DB2046A04272D0E2
:10150000001B37F925101A1B90EA020F09D45A4A1A
:1015100001EB080051461268526E13680246984764
:1015200061E0DFF858B1DBF800C0BCF10C0F5ADA0B
:101530000020BCF1000FC4BF6046514A4CDD00BF23
:1015400002EB400333F9023C8B4245DB22F81030BA
:10155000401EF5D140E0A34245D0A8BF844203DA43
:10156000A042A8BF9C423EDB98424EDC0246A0420D
:10157000DFBF18468442BCF90030B1F9001032DCFC
:10158000A1EB030CA11A0CFB01F100E02FE00029F4
:10159000A0EB020CCEBF01EB6C01A1EB6C01491C6E
:1015A000801A91FBF0F0DFF8D4B0C118DBF800C06E
:1015B000BCF10C0F17DA0020BCF1000FC4BF60466D
:1015C0002F4A09DD02EB400333F9023C8B4203DB77
:1015D00022F81030401EF5D1294A22F810100CF1E3
:1015E0000100CBF800006D1CB542FFF650AF069825
:1015F0000025204401902148AB4601680029C4BF62
:101600001F49B1F900A022DD18E01A46A342DEBF4F
:101610008442B1F90030BCF90010B1DDE3E71849AC
:1016200031F91BA055B108EB000C134808EB0A0276
:1016300001990068406E0368604698470F490BF1B6
:10164000010B85F00105096850465945E7DC009813
:10165000641C84427FF711AF07B0BDE8F08F00BF74
:10166000B0F90630069A9A1A0092F7E6B0F902200D
:101670000698141AF9E600002C01002088010020C9
:10168000F0300120F0B50A4600210023002400BFFD
:101690003DE0012505FA01F3156805EA03049C42C3
:1016A00034D105684F000326BE40B5430560157967
:1016B0004E00B5400668354305601579012D02D00E
:1016C0001579022D16D185684F000326BE40B5431B
:1016D000856055794E00B54086683543856045681C
:1016E00001268E40B5434560456896798E40B6B276
:1016F00035434560C5684F000326BE40B543C5600D
:10170000D5794E00B540C6683543C560491C1029DF
:10171000BFD3F0BDF0B5002300244D07ED0E02FA53
:1017200005F3CE1000F1200555F826504E07F70EB0
:101730000F26BE40B543CF1000F1200646F82750D3
:10174000CE1000F1200555F8265045EA0304CE10CE
:1017500000F1200545F82640F0BD41837047018324
:1017600070470AB1018300E0418370472DE9F04FD3
:101770004B4989B00968B1F922200692D1F81CC002
:10178000B1F92470DCF81C40A28982429CBFE38935
:10179000984205D8A0EB02094FF0FF38266812E006
:1017A000D4E90162002A71D0138883429CBF558816
:1017B000A8426BD8C01A526880B202EB8000B0F920
:1017C0000090B0F90280B9F1FF3F5FD09CF818009B
:1017D000A27C10FB02FB94F810A00790B1F92A50EC
:1017E000284603F09DF8C0B208902D4809FB0B6213
:1017F0000068A37C4FF00109816BCDE90293CDE92C
:101800000421C0695246C17E807ECDE90001DDE938
:101810000603394602F0B4F9B8F1FF3F18D045F09D
:10182000020003F07DF81E48A37C08FB0B620068F1
:10183000816BCDE90293CDE90421C0695246C17E96
:10184000807ECDE90001DDE90603394602F098F912
:10185000134E3068C069417E007E814213D9022D4B
:1018600011D085F0040003F05BF83068C069017E98
:10187000C27E11FB0271427ED319827E06981AFB4A
:10188000020202F0F1FB089803F04AF80448627C77
:101890000068418C1144418409B0BDE8F08F00001C
:1018A0002C010020044800290068C069C0691CBFE1
:1018B000027C0A60407C70472C01002002200880D6
:1018C0007047C06982898A429CBFC289914210D9FF
:1018D000806880B102888A429CBF438899420AD8B6
:1018E000406800EB8100A0EB8200B0F90000002806
:1018F00001DB012070470020704700002DE9F04314
:10190000394D024687B02868B0F92A60C069C169BC
:101910001046002904BF07B0BDE8F0830B8883425E
:101920009CBF4B88984205D989680029F6D107B039
:10193000BDE8F083002904BF07B0BDE8F083486824
:101940000988511A00EBC1043046A77802F0E8FF7D
:101950008046286862680123816BCDE90237CDE9B2
:101960000421C169CB7E8A7ECDE900230B7EB0F9CC
:1019700024102278B0F9220002F002F92868C06928
:10198000417E027E91421FD9C07E11FB00F912FBFD
:1019900000F7022E18D000F0CFFB064600F0C0FB87
:1019A00001F0BBF929682278CB69B1F92200DB7E0E
:1019B00012FB0302B1F9241001EB0903394402F0D0
:1019C00053FB304601F0A9F9404602F0A9FF286810
:1019D0006278C369B0F922109B7E12FB0311418427
:1019E00007B0BDE8F08300002C01002010B40446CD
:1019F00015480068D0F81CC02046DCF81C2002B353
:101A0000138883429CBF5388984203D99268002A66
:101A1000F6D116E0AAB110885368221A012000EB13
:101A2000C2009CF81AC0185C10FB0CF0002904BF1F
:101A300010BC704713F8322012FB0CF20A6010BC85
:101A4000704710BC002070472C0100200120088046
:101A50007047C06968B102888A429CBF428891423F
:101A600003D980680028F6D103E000281CBF0120BC
:101A700070470020704700002DE9F047DFF8A48090
:101A8000DFF8A4A04FF00009D8F80840002CC4BF2C
:101A9000D8F8106000251DDDD8F81000C5EB05173B
:101AA00000EBC7007022001DDAF80010FEF7F9FC09
:101AB00046F8789BD8F8100005F1010500EBC70047
:101AC00000F10C018161011D0A1DC0E90F12416482
:101AD000641EE1D1D8F808000024002810DD00BF02
:101AE00001F0B3F9D8F81020C4EB041152F831100A
:101AF000814206D081B1D8F80800641C8442EFDB33
:101B00004C46D8F81010C4EB041001EBC000001DC7
:101B1000CAF80000BDE8F087C4EB041142F83100B8
:101B2000EFE700009C0100202C01002070B51B494C
:101B300019480860084601F0C5FA194CA068C0EBC6
:101B40000010C500284600F0BBF8164B20612A465D
:101B50001B68002198474FF0FF30206001F07AF9B0
:101B6000A06800250028D8BF70BD00BF01F06DF946
:101B70002269C5EB051152F83110814208BF70BDD2
:101B800021B16D1CA0688542F0DB70BDC5EB05116D
:101B900042F8310070BD0000D1840008B00100207F
:101BA0009C01002080010020002808BF704710B56C
:101BB000044600F077FB204604F0C6FE044601F020
:101BC0002BF9204610BD00002DE9F041074600F03A
:101BD00069FB002F08BF002430D000F063FB3846BB
:101BE00004F0B2FE044601F017F9002C26D0164D81
:101BF000164B3A46E869401CE861686B00EBC4008C
:101C00000178491C01700421686B01EBC4011B6859
:101C10004058002100F108063046984756F8081C45
:101C2000686B00EBC1000178022904D3E96900293F
:101C30001CBF491EE9610178491E017001F0ECF8F2
:101C40002046BDE8F0810000B42F01208001002073
:101C5000024A106021F00300506070477430012088
:101C6000002808BF704770B5044600F01BFB0C4D00
:101C7000042000EBC406696B8959486804F006FE2D
:101C80006868401C6860696B686A8851696B0020ED
:101C900001F834006C62BDE8704001F0BDB800008E
:101CA000B42F0120002808BF7047044AD16B01609F
:101CB000002918BF4860D06370470000B42F01208E
:101CC0002DE9F041044606F001FBE01C274E20F010
:101CD0000300051D306CA84288BF0546F46BBCB1FB
:101CE00054F8041CA94210D19CB1206800281CBFE4
:101CF00061684160606800281CBF21680160F16B69
:101D0000A14204BF2068F0632DE02468002CE7D1D5
:101D10000024F168B06B00EB010858F8040CA8EB44
:101D20000007386840B1002006F052FC58F8040C57
:101D3000A8EB00073868B0B97868A84213DB3844CC
:101D4000401B041D384606F015FCF068401BF0608F
:101D50007069284470617868401B1CBF394604F0E4
:101D600095FD44F8045C2046BDE8F081B42F0120C5
:101D70000849CA69521CCA614A6B02EBC002137857
:101D80005B1C1370496B042202EBC000085808303A
:101D900070470000B42F01200A4902684B6B52F8CB
:101DA000082C03EBC2021378022B04D3CB69002B5F
:101DB0001CBF5B1ECB611178491E117000210160B0
:101DC00008467047B42F01200349042202EBC000EB
:101DD000496B085808307047B42F0120C2B2CBB20B
:101DE000D21A48BF524292B202FB02F3C0F307225A
:101DF000C1F3072CB2EB0C0248BF524292B2000C66
:101E0000A0EB114002FB023200B20028BCBF4042EE
:101E100000B280B200FB0020704700002DE9F041C5
:101E2000002182B0084600F0A3F943F6FF7637465A
:101E300000F038FA042002F073FD80461248406931
:101E4000C16C006D8D1B841B0E440744ADF800501F
:101E5000ADF80460ADF80240ADF80670684604F0D5
:101E600081FB48B13B4632462146284602F0FCF849
:101E700004F0C2F90028F5D1404602F051FD00F00F
:101E8000CBFF02B0BDE8F081180100202DE9F04140
:101E900000241D46074688461646022B27DA1C20DA
:101EA000FFF70EFF18B3B8F1000F18BFC0F810808D
:101EB0000BD1104A52F8251039B10A681AB11146EF
:101EC0001268002AFBD1096901618561868204607C
:101ED0004460C0E90247040009D000F011F8E0684E
:101EE000006820B90448006800EB8500846520463E
:101EF000BDE8F081580100202C010020FFF7D2BE80
:101F000000281CBF8369022BA4BF01207047234A0D
:101F1000591C92F800C08C45B8BF117010B4204C09
:101F200054F82310002908BF44F8230030D04A6831
:101F30002AB111465268002AFBD100292BD0C26871
:101F4000D2F800C0CA681268624503DD096800293A
:101F5000F8D120E0F9B1CA681268624504BF828AEC
:101F6000012A08D10A682AB11146D268126862456E
:101F7000F8DA00E079B14A68002A1DBF10604A68AB
:101F8000426044F823004860884208BF0021016095
:101F900010BC0020704710BC012070476001002079
:101FA00058010020002808BF704770B4244D254C0C
:101FB000D0F800C000281CBF8669022E3ADA2A78C1
:101FC000711C8A42B8BF297054F82610002908BF36
:101FD00044F826002ED04A6822B111465268002AE1
:101FE000FBD139B3C2681268CB681B68934203DD2A
:101FF00009680029F8D11DE0E1B1CB681B68934264
:1020000004BF838A012B08D10B682BB11946DB680A
:102010001B689342F8DA00E061B14A68002A1DBFEC
:1020200010604A68426044F826004860884208BF51
:10203000002101605FEA0C00BAD170BC704700005B
:1020400060010020580100200D4B8269002153F8E7
:1020500022C0844507D1D0F800C043F822C00268EE
:10206000002A18BF51604268002A1CBF0368136031
:102070000268002A1CBF43685360016041607047DA
:1020800058010020002070470228A4BF002070479C
:10209000064951F82000002808BF7047C168096848
:1020A00000291CBF00680028F8D1704758010020A3
:1020B0002DE9F04383B01C4615460E46074600F056
:1020C000F1F811480168C86C096D074405440E44D5
:1020D0000C44002004F046FA00281CBF4FF0000812
:1020E0000DF104090BD0CDE90098384631462A4657
:1020F0002346FEF7D9FF04F07FF80028F3D103B0A0
:10210000BDE8F04300F088BE2C010020034951F8DF
:102110002000C1688A6A0821104700005801002089
:1021200010B500F0BFF801F0E5FF02F0B1F8044689
:1021300000F072FE204610BD10B500F0B3F801F0BB
:10214000E1FF02F0A5F8044600F066FE204610BD4F
:10215000024951F8200000690068704758010020CA
:10216000024951F82000006940687047580100207A
:1021700070B50C46054600F095F8044800684584A3
:10218000848400F049FE002070BD00002C01002076
:102190002DE9F0413948016821F00101016038481A
:1021A0000126866081680029FCD1364901600068FB
:1021B0003549884200D0FEE7344D686B70B96E63D4
:1021C00000F034FEFFF7B2FC02F06AFC05F13801C2
:1021D0002F4808600846296B416028632E2028702C
:1021E00000F037FE68692B4C011DC0E90E01006448
:1021F000091D6161417C284850F82100C1680A6BC3
:1022000004F10801904725486066A868E0616869A4
:1022100008306061267603F0A9FDA064032084F8ED
:1022200068006FF0704020636063286902F026FB4D
:10223000E86802F05DFB1A48E86106F011FC04460C
:1022400001F0ACFF10B101F0C9FF38B901F0CCFFCB
:10225000074601F0A9FF394602F05CFB0021084661
:1022600000F07CFD03F0A8FDFFF706FCA86900283C
:1022700018BF8047AE702046BDE8F081002000E026
:1022800000300240C2A507F4CDB5E8B51801002022
:1022900099840008803001205801002048D80008A7
:1022A000C800010870B5234CE06820B100F0CDFDF6
:1022B0006168884204D000F0DFFD00F0C6FD606078
:1022C000E068401CE060012818BF70BD0025A068D0
:1022D00000280DDD00F0B9FD2269C5EB051152F8AB
:1022E0003110814205D0F9B1A0686D1C8542F1DB47
:1022F00000252068854208BF70BD002812DBFFF76B
:10230000C1FE2168C1EB0112216901EBC2025067D5
:10231000C5EB0510084A01EBC000011D1160406FBC
:10232000FFF740FE256070BDC5EB051142F8310096
:10233000DFE700009C0100202C010020002808BFDE
:10234000704738B50446FFF7ADFF0E480068006ED1
:10235000A04208BF00F0ACFC2046FFF709FD00904A
:102360004069002818BF00F03FFD00980068FFF7A3
:10237000C5FD6846FFF710FD2046FFF771FC00F031
:102380004BFD38BD2C01002038B505004FF000048E
:1023900011D0FFF787FF2846FFF7EAFC009000689E
:1023A00000698068804702F0D8FC04466846FFF761
:1023B000F3FC00F031FD204638BD38B5040008BFFD
:1023C00038BDFFF76FFF2046FFF7D2FC00F118047D
:1023D00000906846FFF7E0FC00F01EFD204638BD87
:1023E000002808BF70472DE9F04FA1B090460E4677
:1023F0000746FFF7BDFC1990D0F8149019A8FFF715
:10240000CBFC3846FFF7C0FFF84D082803DDB9F1D3
:10241000000F00F02782F649CDE91586D1E90001C9
:10242000CDE91C013C463846FFF7A2FC1790D0F8D6
:102430001490C1681291B0F9081007691491B0F9AD
:102440000A100B9100680069406811902868407C70
:10245000FFF75CFE1B902868407CFFF781FE064674
:1024600017A8FFF799FC082F9CBF01200A9004D9F8
:10247000102F94BF022004200A90012F0CBF0DF1F1
:1024800070084FF000081198B04200F031812868C0
:10249000407CFFF75DFE1E9014988000FFF784FBE0
:1024A0001890002804BF21B0BDE8F08F2046FFF748
:1024B00084FF0890B9F1000F00F008814846FFF74B
:1024C00057FC1A9000200D900B98002840F3FA80DA
:1024D000002009901A980D9A81684B6909A99847BC
:1024E0000646149886424FD11898FFF741FC089D84
:1024F00004461390082F2ED90296DDF86CB0DDF853
:1025000044A0DDF87890069435F8020BD047C84710
:1025100044F8040B761EF7D1BBF1200F04D25A46C3
:102520000299069800F0BEFC139900201B9ACDF882
:102530001480CDE9030101200090CDE901020D993D
:10254000159801230144149A169801F019FB13A859
:10255000FFF722FCABE0DDF86CB0DDF844A0DDF85D
:1025600078900396CDF8104015F8010BD047C84776
:1025700044F8040B761EF7D1BBF1200F3CBF5A463E
:10258000DDE90310D0D2CDE7012F28D0002E4FD0A7
:1025900015990D9808441F901898FFF7E9FB044619
:1025A0001390DDE908010A9A082F42D901FB0209BC
:1025B0001B98DDF844B0DDF878A00190354605940D
:1025C00039F8020BD847D04744F8040B6D1EF7D1F9
:1025D0000198202849D202463146059843E0002E52
:1025E00065D015990D980D18012409980094C1170C
:1025F00000EB5173089900F0070201EBE301129B15
:10260000CDE90331CDE90582CDE90147169A294686
:1026100010440123324602F06BFA09980D9A3044B7
:1026200009901A9881684B6909A998470600DCD17E
:102630003DE001FB02051B98DDF844B0DDF878A011
:102640000390B146CDF8104015F8010BD847D0479C
:1026500044F8040BB9F10109F6D10398202804D2FB
:1026600002463146049800F01DFC139900201B9A85
:10267000CDF81480CDE9030101200090CDE90102DD
:10268000099A16980123104432461F9901F078FAEE
:1026900013A8FFF781FB09980D9A304409901A9806
:1026A00081684B6909A9984706007FF475AF0899BE
:1026B0001298084408900D980B99401C0D90884280
:1026C000FFF606AF1AA8FFF767FB0EE01299CDF8E8
:1026D0001480CDE9031001200090CDE90107DDE968
:1026E00015100B9B149A01F04BFA189800F080BA61
:1026F0002046FFF762FE0646B9F1000F75D0484646
:10270000FFF736FB1A900B9800250028C4BF4FF046
:10271000000B4FF0010962DD1A98CDF824B02A466B
:1027200081684B6909A9984714990446884229D1C0
:102730001A98AA466A1C81684B6909A99847A04261
:1027400008D11A98AA1C6D1C81684B6909A9984781
:10275000A042F6D0CDF800901298CDF81480CDE9C3
:102760000306CDE901971598A5EB0A0400EB0A01D1
:10277000631C149A169801F003FA1298611C01FB6D
:10278000006628E0012F35D0002C1CBF159800EB07
:10279000050A1ED0DDE9090100FB0162CDF80090B9
:1027A0001299CDF81480CDE90312CDE90197169A5C
:1027B000514610440123224601F0E2F909982A46C5
:1027C000204409901A9881684B6909A99847040028
:1027D000E0D1129806440B986D1C85429CDB1AA828
:1027E000FFF7DAFA21B0BDE8F08F2DE02C010020D0
:1027F000081E0108002C1CBF159800EB050AE8D044
:102800000998129B00F00701CDF80090CDE90581F1
:10281000C21700EB527206EBE202CDE90332CDE9BA
:102820000197169A514610440123224602F060F99E
:1028300009982A46204409901A9881684B6909A989
:1028400098470400DCD1C4E71298CDF81480CDE994
:10285000030601200090CDE90107DDE915100B9B6F
:10286000149A3BE0049704460C9647460498FFF7F9
:102870007FFA1290B0F908100691B0F90A90C16879
:10288000039100F1180102910068D0F810A012A87D
:10289000FFF782FA2868D849DAF804B0407C51F88A
:1028A00020100D692E68FFF731FC082898BF4FF003
:1028B000010805D9102894BF4FF002084FF0040812
:1028C000AA450ED100200299CDE904100120009004
:1028D000CDE901044B463946069A0C9801F050F9AF
:1028E00080E7202C3ED0102C7FF47CAF069818FB9C
:1028F00000F0FFF759F9149000283FF473AFFFF789
:1029000037FA13900498FFF733FA1290296900F10F
:102910001804002919BFDAF8141000294FEAC8007A
:10292000109000F01C81B0F908004FEA8000FFF71A
:102930003BF90E90002808BF089000F05281FFF785
:1029400017FA0890002818BF4FEAC80600F049811E
:10295000B8F1010F76D0B8F1020F74D0B8F1040FBE
:1029600072D0E1E0069818FB00F0FFF71DF9149013
:1029700000283FF437AFFFF7FBF913900498FFF7F7
:10298000F7F900F1180412902869002808BF4FEAEF
:10299000C80B43D04FF0000A4FF0010B4FEAC806B6
:1029A000B8F1010F06D0B8F1020F0ED0B8F1040F44
:1029B00016D01FE0D5F810C0139901232046069ABF
:1029C000E047069804EB800414E0D5F810C0139992
:1029D00002232046069AE047069804EB800409E0AB
:1029E000D5F810C0139904232046069AE0470698AC
:1029F00004EB800413983946CDE903A0CDF800B06C
:102A0000CDF814A0CDE901B67F1C0123069A0C98DD
:102A100001F0B6F8B9F10109C2D140E0069DB8F164
:102A2000010F08BFDDF84CA00FD0B8F1020F08BFAE
:102A3000DDF84CA011D0B8F1040F08BFDDF84CA0B0
:102A400013D019E035E048E05BE054F8040BB047E0
:102A50000AF8010B6D1EF8D10EE054F8040BB047D4
:102A60002AF8020B6D1EF8D106E054F8040BB047AB
:102A70004AF8040B6D1EF8D113990020CDE903012B
:102A8000059001200090CDE9010B394603467F1CDB
:102A9000069A0C9801F074F8B9F10109BED112A898
:102AA000FFF77AF913A8FFF777F91498FFF7D8F82A
:102AB00098E6DAF814C0DDF84CB002232046069AF6
:102AC0000899E047D5F810C001235946069A08989E
:102AD000E047069804EB400426E0DAF814C0DDF87D
:102AE0004CB002232046069A0899E047D5F810C05A
:102AF00002235946069A0898E047069804EB4004DA
:102B000012E0DAF814C0DDF84CB002232046069A31
:102B10000899E047D5F810C004235946069A08984A
:102B2000E047069804EB400413990020CDE9030127
:102B3000059001200090CDE90106394603467F1C2F
:102B4000069A0C9801F01CF8B9F101097FF400AF66
:102B500008A8FFF721F90E98FFF782F841E0069DDB
:102B6000B8F1010F08BFDDF84CA00CD0B8F1020F8E
:102B700008BFDDF84CA00FD0B8F1040F08BFDDF896
:102B80004CA012D019E034F8020BD847B0470AF82D
:102B9000010B6D1EF7D110E034F8020BD847B04797
:102BA0002AF8020B6D1EF7D107E034F8020BD84764
:102BB000B0474AF8040B6D1EF7D100201099CDE9FB
:102BC0000210139ACDE904200120019000903946AB
:102BD00003467F1C069A0C9800F0D2FFB9F1010958
:102BE000BDD112A8FFF7D8F813A8FFF7D5F81498AD
:102BF000FFF736F8F6E5000058010020002808BF6E
:102C0000704700290CBF1146002A20D0B1F900C03E
:102C1000B2F900309C45B8BF63460380B1F902C0E9
:102C2000B2F902309C45B8BF63464380B1F904C095
:102C3000B2F904309C45C8BF63468380B1F90610E1
:102C4000B2F906209142D8BF1146C18070470A6888
:102C50004968026041607047002808BF70470388D8
:102C60000B4403808388194481804188114441804A
:102C7000C1881144C1807047B0F90220B1F9063013
:102C80009A4213DCB1F90220B0F906309A420DDC09
:102C9000B0F90020B1F904309A4207DCB1F9001014
:102CA000B0F904008842A4BF01207047002070479B
:102CB00010B5FFF7F7FA01F0BDFD01F095FE02F047
:102CC00031FFBDE8104000F0A7B8000070B50B4D13
:102CD00004462868467CFFF7E5FA022C09D2204614
:102CE000FFF7D2F928B128684474FFF7E1FF0448E0
:102CF000046000F091F8304670BD00002C01002007
:102D0000EC01002010B50446FFF7CCFA204601F094
:102D1000B5FDBDE8104000F07FB810B50446FFF7E0
:102D2000C1FA204601F0E4FDBDE8104000F074B89F
:102D300001498860704700001801002070B5044602
:102D4000FFF7B0FA0448002C0068C56918BFC461D9
:102D500000F062F8284670BD2C01002070B50C46CA
:102D60000546FFF79FFA0948224605800848048077
:102D700008480068417C084850F82100C1680B6A87
:102D800029469847BDE8704000F046B86801002029
:102D90006A0100202C010020580100200248006830
:102DA000002808BF70470047B801002003498A681F
:102DB000002A08BF8860FFF7F1BF00008C010020E7
:102DC0002DE9F0411F46069D1446884606462246D8
:102DD000B068641C3B46D0F804C041463046E0472A
:102DE0006D1EF4D1BDE8F08138B50546FFF75AFAFB
:102DF0002846FEF7BDFF00908189491E0CB28481F0
:102E00006846FEF7C9FF002C04BF2846FEF728FFDE
:102E100000F002F838BD00000348C168491EC160D7
:102E200018BF704700F032B89C01002010B54FF475
:102E300080610348FEF70CFF0248FFF779FF10BDE1
:102E4000000010D0A0DF0008704710B507F01CFD8F
:102E500010BD704710B5012007F036F9044908602D
:102E600003220021012007F040F90249086010BD4B
:102E7000140100201001002010B54FF0FF3102486E
:102E8000006807F0AFFB10BD1401002010B500234F
:102E90001A4619460248006807F0A0F910BD000064
:102EA0001401002030B4082A1FDC0346012A47D051
:102EB000022A7CD0042A7BD00129D8BF0121181F07
:102EC0005A1E11F0010F03D010F8043F02F8013F21
:102ED000491007D00379537010F8083F02F8023FF9
:102EE000491EF7D130BC01207047102AC2BF002014
:102EF00030BC70470129D8BF00211CDDA1F1010CB5
:102F0000BCF1000F15DD021F831E11F0010F03D16C
:102F100032F8044F23F8024F54685FEA6C0C08D073
:102F200032F8085F5C80546823F8045FBCF1010C40
:102F3000F6D1491ED6D430F8212020F81120D1E74F
:102F400010F8042BD207120E491E38D010F804CB0B
:102F5000491E0CF0010C42EA8C1230D010F804CB60
:102F6000491E0CF0010C42EA4C1228D010F804CB98
:102F7000491E0CF0010C42EA0C1220D010F804CBD0
:102F8000491E0CF0010C42EACC0218D010F804CB18
:102F9000491E0CF0010C42EA8C0210D010F804CB50
:102FA000491E0CF0010C42EA4C0208D001E00BE093
:102FB0002CE010F804CB0CF0010C4CEA020203F8F0
:102FC000012B0029BCD18DE710F8042B9207120EBB
:102FD000491E16D010F804CB491E0CF0030C42EA2F
:102FE0000C120ED010F804CB491E0CF0030C42EA70
:102FF0008C0206D010F804CB491E0CF0030C4CEAEE
:10300000020203F8012B0029DED16BE710F8042B34
:103010001207120E491E06D010F804CB491E0CF000
:103020000F0C4CEA020203F8012B0029EED159E7FC
:10303000B0F90030B1F900209342C8BF1A460280AF
:10304000B0F90230B1F902209342C8BF1A4642805B
:10305000B0F90430B1F904209342D8BF1A468280F7
:10306000B0F90620B1F906108A42C8BF0A46C280EC
:10307000704730B4B1F900C0B2F900309C45C8BF08
:1030800063460380B1F90240B2F902C06445C8BF8B
:10309000A446A0F802C0B1F90450B2F90440A54218
:1030A000B8BF2C468480B1F90610B2F906209142CF
:1030B000A8BF1146C1809C42AABF614500200120E3
:1030C00030BC704702490A6B4260086370470000D9
:1030D0001801002070B410F0020F02D020F8021B7B
:1030E000521E53083CD001EB014C042B25DB40F869
:1030F00004CB1B1F40F804CB032B40F808CB40F84F
:1031000004CC1ADD5C42E51704EB9574A41066420A
:10311000002EC4BF044635460FDD00BF44F804CB83
:103120006D1E44F804CB44F808CB44F804CCF5D128
:10313000744200EB061003EB8403002B16DD041F22
:1031400013F0010F18BF44F804CF5D1006D000BF84
:10315000C4F804C044F808CF6D1EF9D100EB830019
:1031600012F0010F18BF018070BC7047002BF7D020
:1031700040F804CB5B1EFBD1F2E700BFFEE721B1B4
:10318000028842F48062028004E002884FF6FF3336
:103190001A400280704721B1028842F00102028089
:1031A00004E002884FF6FE731A400280704721B196
:1031B000828842F40062828004E082884FF2FF73CA
:1031C0001A4082807047000010B5044613488442BC
:1031D00009D10121480502F00BF800214FF400103D
:1031E00002F006F818E00E48844209D10121880552
:1031F00001F0FEFF00214FF4800001F0F9FF0BE029
:103200000848844208D10121C80501F0F1FF0021DE
:103210004FF4000001F0ECFF10BD0000005400402E
:1032200000580040005C004021B1028842F48072E6
:10323000028004E002884FF6FF631A400280704764
:1032400021B1028842F40072028004E002884FF645
:10325000FF531A40028070470CB50246002000233D
:103260000193009300920B0F019321F07F41019B8A
:103270001BB1009B1433009303E0090C009B18332F
:103280000093009B1B680B400BB1012000E0002065
:103290000CBD00002DE9FF4704460D460026B1464F
:1032A0000427DFF8CC80A6884FF6C0700640684639
:1032B00001F0CEFFDDF808802E48B8FBF0F01FFAD1
:1032C00080F946EA0906A68020884FF6FE7108407C
:1032D000208000262849286888420CD828684000A9
:1032E000B8FBF0F087B2042F00DA04273E4309F15F
:1032F0000100208427E0E8884BF6FF71884206D160
:10330000286800EB4000B8FBF0F087B209E02868BD
:1033100000EBC00101EB0010B8FBF0F087B247F4FE
:103320008047C7F30B0008B947F0010747F4004096
:1033300006434FF4967009FB00F04FF47A7190FB4E
:10334000F1F0401C2084A683208840F001002080FA
:1033500026884FF6F5300640A88869890843064359
:103360002680A889298908432081BDE8FF870000BD
:1033700000127A0040420F00A086010070B504469A
:10338000002501216548FFF74FFF4FF44050644985
:10339000086009E0624801680068401E604A1060E9
:1033A00011B900F0B5FA70BD5E495C48FFF754FFF3
:1033B0000028EFD000215948FFF7E1FE00228221CA
:1033C000564800F0B5F84FF440505549086009E000
:1033D000534801680068401E514A106011B900F05E
:1033E00097FAE0E74F49491C4C48FFF735FF0028A2
:1033F000EED04A48183000884FF4405048490860E1
:1034000009E0474801680068401E454A106011B94C
:1034100000F07EFAC7E743497F314048FFF71CFFC1
:103420000028EED021463D4800F08AF84FF4405085
:103430003B49086009E03A4801680068401E384A84
:10344000106011B900F064FAADE736497F313348B6
:10345000FFF702FF0028EED03249C91C2F48FFF7C2
:10346000FBFE0028E7D001212C48FFF7DDFE4FF4DA
:1034700040502B49086009E0294801680068401E57
:10348000274A106011B900F043FA8CE72549234818
:10349000FFF7E2FE0028EFD0012282211F4800F052
:1034A00047F84FF440501E49086009E01C48016885
:1034B0000068401E1A4A106011B900F029FA72E73C
:1034C0001849491C1548FFF7C7FE0028EED01348DD
:1034D000183000884FF440501149086009E0104846
:1034E00001680068401E0E4A106011B900F010FA21
:1034F00059E70C493F310948FFF7AEFE0028EED0EE
:1035000001210648FFF79CFE044800F00DF805462F
:1035100001210248FFF733FE284644E7005C0040E3
:1035200060000020010000100146088AC0B2704708
:1035300012B141F0010101E001F0FE01018270478A
:103540000182704721B1028842F40042028003E008
:103550000288C2F30E0202807047000070B5044674
:103560000D46002601214648FFF75EFE4FF440500D
:103570004449086009E0434801680068401E414A28
:10358000106011B900F0C4F970BD3F493C48FFF725
:1035900063FE0028EFD0002282213948FFF7C8FFE0
:1035A0004FF440503749086009E036480168006828
:1035B000401E344A106011B900F0AAF9E4E732491C
:1035C000491C2F48FFF748FE0028EED02C48183041
:1035D00000884FF440502B49086009E029480168F1
:1035E0000068401E274A106011B900F091F9CBE73E
:1035F00025497F312248FFF72FFE0028EED02146D3
:103600001F48FFF79DFF4FF440501E49086009E036
:103610001C4801680068401E1A4A106011B900F089
:1036200077F9B1E718497F311548FFF715FE0028F3
:10363000EED029461248FFF783FF4FF4405011495E
:10364000086009E00F4801680068401E0D4A1060DC
:1036500011B900F05DF997E70B497F310848FFF792
:10366000FBFD0028EED00849C91C0548FFF7F4FD12
:103670000028E7D001210248FFF7E2FDF0B283E71E
:10368000005C0040600000200100001010B500F058
:1036900049F800F087F800F0BDF808B1042010BD2B
:1036A00000F0DCF80121084600F004F800F0F2F820
:1036B0000020F4E770B504460E4600250420FFF70D
:1036C0005DFE05460EB1A54300E0254329460420D2
:1036D000FFF744FF002070BD70B5054600240920A7
:1036E000FFF74CFE044615B144F0010401E024F05C
:1036F000010421460920FFF731FF002070BD70B59D
:1037000004460E4600250A20FFF738FE05460EB196
:10371000254300E0A54329460A20FFF71FFF0020AC
:1037200070BD00001CB50121C80501F051FD01214B
:1037300040F2051001F01CFD0121880301F068FD35
:103740000121C80501F054FD00214FF4000001F0F3
:103750004FFD042208211148FDF7DCFF0422092156
:103760000F48FDF7D7FF4FF48070009002208DF8CE
:1037700004008DF8050001208DF8060000208DF86A
:10378000070069460548FDF77DFF4FF40070009083
:1037900069460348FDF776FF1CBD000000000240AB
:1037A000000802401FB51048008800F00100D0B9A1
:1037B0000020ADF804004BF6FF70ADF806000020C5
:1037C000ADF808004FF48060ADF80A000001ADF8D4
:1037D0000C000648009069460348FFF75BFD012195
:1037E0000148FFF7D8FC1FBD005C0040A086010027
:1037F00070B504460E4600251720FFF7BFFD0546AD
:103800000EB1254300E0A54329461720FFF7A6FE89
:10381000002070BD10B500F011F840F6110188428B
:1038200007D00548006810B900F072F810BD0120FB
:10383000FCE70020FAE700006000002010B500243B
:103840000020FFF79BFD04464FF6FF7000EA0424BA
:103850000120FFF793FD0443204610BD10B502215F
:103860000320FFF77BFE022005F0BEF800210320B5
:10387000FFF774FE002010BD10B50120FFF72CFFEC
:1038800001210720FFF73BFF0D20FFF777FD002008
:1038900010BD000010B501210220FFF70BFF4921E8
:1038A0002020FFF75BFE022005F09EF80121212079
:1038B000FFF754FE00211E20FFF79AFF9A214120B6
:1038C000FFF74CFE01214A20FFF748FE01214B2063
:1038D000FFF744FE00214B20FFF740FE0121562058
:1038E000FFF73CFE01215820FFF738FE032140205E
:1038F000FFF734FEFF210B20FFF730FE00200349C5
:10390000C88088804880088010BD000058000020D2
:103910001FB501211648FFF793FC01211448FFF75A
:1039200011FE00211248FFF70DFEFFF7FBFE1048C5
:10393000FFF74AFC0020ADF804004BF6FF70ADF82D
:1039400006000020ADF808004FF48060ADF80A00D2
:103950000001ADF80C000748009001210448FFF772
:103960001AFC69460248FFF795FC002004B010BD20
:10397000005C0040A08601001CB501216F2001F011
:10398000F7FB0E2203215048FDF7C4FE0E2204214E
:103990004D48FDF7BFFE0E2206214B48FDF7BAFE4B
:1039A0000E220B214848FDF7B5FE0E220C21464899
:1039B000FDF7B0FE41F65800009002208DF805009A
:1039C0008DF8040000208DF806008DF80700694688
:1039D0003D48FDF757FE092200213C48FDF79AFEBD
:1039E000092201213948FDF795FE0E2208213748AA
:1039F000FDF790FE0E2209213448FDF78BFE0E22C2
:103A00000A213248FDF786FE0E220B212F48FDF7D2
:103A100081FE40F60370009069462C48FDF732FEA7
:103A20000E2206212A48FDF775FE0E22072128489E
:103A3000FDF770FE0E220A212548FDF76BFE4FF4BC
:103A40009860009069462248FDF71CFE0E22032173
:103A50002048FDF75FFE0E2206211E48FDF75AFEA4
:103A60004820009069461B48FDF70CFE0E220A21F3
:103A70001948FDF74FFE4FF48060009069461648E4
:103A8000FDF700FE0E2206211448FDF743FE0E222C
:103A900007211248FDF73EFE09220A210F48FDF7D3
:103AA00039FE0E220B210D48FDF734FE09220C21B0
:103AB0000A48FDF72FFE4FF4E6500090694607488C
:103AC000FDF7E0FD1CBD00000000024000040240C4
:103AD00000080240000C024000140240001802409E
:103AE00010B5044624B904210448FDF736FE03E06E
:103AF00004210248FDF733FE10BD0000000802401B
:103B00000449054A0968497C52F821100969096885
:103B1000084700002C010020580100201CB501219D
:103B20000C2001F025FB0420009002208DF80500F8
:103B300001208DF8040000208DF806008DF80700A4
:103B400069460848FDF79EFD4FF400500090694615
:103B50000548FDF797FD01220421024800F006F810
:103B60001CBD000000080240000C024070B5044675
:103B70000D461646324629462046FDF7F2FD70BD39
:103B80002DE9FF4F87B09B48DDF850A0169E0068D6
:103B900090B1DDE91723DDF864C0CDF814C00296BA
:103BA000CDE90323159ACDE900A2D0F800C0DDE9E4
:103BB0000923079800F0D6B80A98099A0844451EC8
:103BC00007988D4C1044A0F1010C15984AEA0000AA
:103BD000012826D0C6F10800029000200091049030
:103BE0000A980028DCBF0BB0BDE8F08F159900984B
:103BF0000844411E019105902068B0F90A208A42CC
:103C000000F3E780B0F90E100098884200F3E180DD
:103C1000189803900998079D4FF00008002873DC5E
:103C2000D7E02268B2F90A30581A00280DDD0A9947
:103C3000091A0A910029DCBF0BB0BDE8F08F1946C4
:103C4000DDE9173400FB03401890B2F90E00281A82
:103C5000002807DD0A9B181A0A900028DCBF0BB069
:103C6000BDE8F08FB2F90C00ACEB0000002802DDDB
:103C7000099B181A0990B2F90830DDF81CC0002021
:103C8000634553DDA3EB0C00099B1B1A0993082E17
:103C900032D006DC012E0BD0022E15D0042E1FD000
:103CA00044E0102E31D0182E18BF202E36D03DE023
:103CB000189B20F0070C03EBE0031893079B00F020
:103CC00007006344079331E0189B20F0030C03EBDB
:103CD000A0031893079B00F003006344079325E0BB
:103CE000189B20F0010C03EB60031893079B00F076
:103CF00001006344079319E0189B03446044079054
:103D000018934FF0000011E033E0189B03EB4003E1
:103D10006044079018934FF0000007E0189B03EBF6
:103D200080036044079018934FF00000099B002B1C
:103D3000DCBF0BB0BDE8F08FDDE91734DDF864C0FF
:103D4000CDF814C00293CDE903400A98CDE90006EE
:103D5000527C2A48099B50F82200C268D2F804C05D
:103D60000A460799E0470BB0BDE8F08FB9F1000FA4
:103D700005D103984FF0080910F8017B03900298D1
:103D8000A9EB060937FA00F007FA06F1CFB204D121
:103D90002168097C11F0020F15D12168199AC96BAD
:103DA000002AD1F800B018BF52F82000086005EBD7
:103DB0000A00DDE90013421E284600F055F920688C
:103DC000C06BC0F800B0099808F10108554480455F
:103DD000CCDB0498401C049005980090DDE91701A5
:103DE000084418900A9904988842FFF6FFAE0BB079
:103DF000BDE8F08F640100202C0100205801002054
:103E00002DE9F04F8BB006460F4614469846149D98
:103E10004FF00009CA46CB460020009005F47840D8
:103E20004FEAD02A05F01F00009005F4FC604FEA2D
:103E3000501BF02000FB076014490968022202FBB6
:103E40000019FCF78FFC4FF44030019002200290E3
:103E5000CDF810B000980390CDF814A00F20069074
:103E6000CDF81C90C4F1F0000890CDF824800A949D
:103E700001A8FCF78FFCFCF7FFFC00BF0220FCF759
:103E80007DFC0028FAD00BB0BDE8F08F9400002034
:103E90008C46164930B40968B1F90A306345D9BF78
:103EA000B1F90E309C4530BC7047B1F908309842EA
:103EB00015DB00BFB1F90C30934213DB8242BCBF6B
:103EC00030BC70474B7C0A4951F823401346624688
:103ED000E1688D6801462046AC4630BC6047B1F9C8
:103EE0000800E7E7B1F90C20E8E700002C0100200A
:103EF000580100202DE9F04F8BB006460F461446BE
:103F00009846149D4FF00009CA46CB460020009009
:103F1000F02000FB07601E490968022202FB00191D
:103F200005F478404FEAD02A05F01F00009005F410
:103F3000FC604FEA501BFCF715FC4FF44030019039
:103F400002200290CDF810B000980390CDF814A094
:103F50000F200690CDF81C90B8F1000F05D100207D
:103F60000890012009900A9404E0EF200890099439
:103F700001200A9001A8FCF70DFCFCF77DFC00BFB6
:103F80000220FCF7FBFB0028FAD00BB0BDE8F08F55
:103F9000940000200A46194930B40968B1F90A3082
:103FA0009342D9BFB1F90E309A4230BC7047B1F993
:103FB00008308342D9BFB1F90C30984230BC704709
:103FC0000B7C13F0010FDFF838C009D0497C5CF896
:103FD0002130D968D1F81CC0014630BC1846604772
:103FE000CB6B497C1B685CF821C0DCF80C108C6939
:103FF00001466046A44630BC604700002C0100200A
:10400000580100208C46164930B40968B1F90830CF
:104010008342D9BFB1F90C30984230BC7047B1F936
:104020000A309C4515DB00BFB1F90E30934213DB1B
:104030006245BCBF30BC70474B7C0A4951F82340F5
:1040400013466246E168CD6801462046AC4630BC66
:104050006047B1F90AC0E7E7B1F90E20E8E70000D0
:104060002C0100205801002038B58C4617490968FA
:10407000B1F9084084421FDCB1F90C4094421DDBC9
:104080008242B8BF38BDB1F90A40644518DC00BFB0
:10409000B1F90E409C4216DB6345B8BF38BD0093B2
:1040A0004B7C0B4951F8234013466246E1680D6989
:1040B00001462046A84738BD2046DDE72246DFE717
:1040C000B1F90AC0E4E7B1F90E30E5E72C010020B0
:1040D0005801002070B508250024022807DAFDF7F2
:1040E000D3FF20B1C1688A6A29469047044620461A
:1040F00070BD000002480068806B006870470000D7
:104100002C01002002480068C06B00687047000066
:104110002C01002070B50848092500240068407C67
:10412000022807DAFDF7B0FF20B1C1688A6A294684
:1041300090470446204670BD2C01002070B509252B
:104140000024022807DAFDF79FFF20B1C1688A6AC0
:10415000294690470446204670BD70B500252C4680
:104160002046FDF791FF002818BF6D1C641C022C2F
:10417000F6DB284670BD0000074810B50068407C9B
:10418000FDF782FF002808BF10BDC168CA6ABDE8FC
:1041900010400221104700002C0100200148006857
:1041A00070470000740100202DE9F0410127002430
:1041B0003D4600262846022D07DAFDF765FF20B1AF
:1041C000C1688A6A394690470646B44204DB6D1ED0
:1041D000EFD52046BDE8F0813446F8E70148406855
:1041E00070470000740100202DE9F04102270024EF
:1041F000012500262846022D07DAFDF745FF20B1EC
:10420000C1688A6A394690470646B44204DB6D1E8F
:10421000EFD52046BDE8F0813446F8E72DE9F041BE
:1042200006004FF000001ABFB768002FBDE8F0810C
:10423000DFF85880D8F80810002908BFBDE8F081E1
:104240003468B4F5807FC8BFBDE8F081D8F80000BD
:10425000A04218DB0025002C0BDD00BF57F825001D
:10426000FFF74EFCD8F8081041F825006D1CAC4251
:10427000F4DCD8F8041000291CBF30468847D8F871
:104280000800BDE8F0810446E4E70000C801002012
:104290000449054A0968497C52F8211009694968AE
:1042A000084700002C01002058010020094A0A4B51
:1042B00000F01F01C0F3451CC0F3C420515C13F88B
:1042C0000C30105C01EB032101EB004040F07F401B
:1042D0007047000068FE000888FE000800B58FB037
:1042E000FFF71CFC0020FFF7FBFB0120FFF7F8FBAA
:1042F00000F036FA00F0EEF80121880600F088FFA1
:104300000121C80500F034FFFFF736FB01F054F936
:10431000002000900190029003900C900D900E9060
:1043200004220721C02001F039F84FF4003001F0D9
:1043300023F8012001F02CF800BF3D2000F0FCFF25
:104340000028FAD009200490012005901D20069035
:104350000320079040F20D10089040F2431009909E
:1043600040F217100A9040F247100B90684600F098
:104370005FFD0FB000BD000010B50A4CA06870B919
:1043800020688000FDF79CFCA060002804BF01208D
:1043900010BD0548054908600846FEF793FE002059
:1043A00010BD0000C8010020E5840008D4010020F1
:1043B0002DE9F05FFFF7D1FE071E4FF00005D8BFD3
:1043C000BDE8F09FDFF864A0DFF864B0DFF8648038
:1043D0002846FDF759FE20B3D8F8000090F8119058
:1043E00045742846FFF776FE082816DC5AF82500A3
:1043F0000069584511D02846FFF7A0FE061E4FF071
:1044000000040ADDE0B2FFF743FF0246E1B22846AE
:1044100000F092FA641CA642F4DCD8F8000080F8A0
:1044200011906D1CBD42D3DBBDE8F09F5801002008
:10443000101E01082C01002000B591B01E20019033
:1044400040F20D1002900420039040F243100490BB
:1044500002200590FF200690002007900890099008
:104460000A904FF480600B9005200C9040F2E3100E
:104470000E90C01E0F904FF4A07010904FF050405F
:104480000D9001A9104800F0A2FD10480D904FF4C6
:10449000C0600B9007200C9001A90B48803000F001
:1044A00096FD012000F01EFE0121074800F084FD6A
:1044B000012000F017FE064800F038FA012000F055
:1044C000A5FC11B000BD000084680140000005D0CB
:1044D0006C00002010B5CA2000F098FAC32000F04C
:1044E000BBFA082000F0B8FA502000F0B5FACF204F
:1044F00000F08CFA002000F0AFFAC12000F0ACFA16
:10450000302000F0A9FAED2000F080FA642000F0DD
:10451000A3FA032000F0A0FA122000F09DFA8120F7
:1045200000F09AFAE82000F071FA852000F094FA81
:10453000002000F091FA782000F08EFACB2000F0F5
:1045400065FA392000F088FA2C2000F085FA002066
:1045500000F082FA342000F07FFA022000F07CFAAA
:10456000F72000F053FA202000F076FAEA2000F05D
:104570004DFA002000F070FA002000F06DFAB12032
:1045800000F044FA002000F067FA1B2000F064FA03
:10459000B62000F03BFA0A2000F05EFAA22000F0FC
:1045A0005BFAC02000F032FA102000F055FAC1206A
:1045B00000F02CFA102000F04FFAC52000F026FA87
:1045C000452000F049FA152000F046FAC72000F017
:1045D0001DFA902000F040FA362000F017FAC820AB
:1045E00000F03AFAF22000F011FA002000F034FA5C
:1045F000B02000F00BFAC22000F02EFAB62000F036
:1046000005FA0A2000F028FAA72000F025FA272052
:1046100000F022FA042000F01FFA2A2000F0F6F938
:10462000002000F019FA002000F016FA002000F037
:1046300013FAEF2000F010FA2B2000F0E7F9002029
:1046400000F00AFA002000F007FA012000F004FA56
:104650003F2000F001FAF62000F0D8F9012000F028
:10466000FBF9002000F0F8F9062000F0F5F92C2005
:1046700000F0CCF9C82004F0C9F9262000F0C6F9F2
:10468000012000F0E9F9E02000F0C0F90F2000F06F
:10469000E3F9292000F0E0F9242000F0DDF90C20F6
:1046A00000F0DAF90E2000F0D7F9092000F0D4F973
:1046B0004E2000F0D1F9782000F0CEF93C2000F037
:1046C000CBF9092000F0C8F9132000F0C5F9052046
:1046D00000F0C2F9172000F0BFF9112000F0BCF97A
:1046E000002000F0B9F9E12000F090F9002000F07E
:1046F000B3F9162000F0B0F91B2000F0ADF904204A
:1047000000F0AAF9112000F0A7F9072000F0A4F9A1
:10471000312000F0A1F9332000F09EF9422000F092
:104720009BF9052000F098F90C2000F095F90A207B
:1047300000F092F9282000F08FF92F2000F08CF97A
:104740000F2000F089F9112000F060F9C82004F072
:104750005DF9292000F05AF92C2000F057F910BD1E
:1047600000B587B00121202000F002FD01210805DD
:1047700000F04EFD8020009001208DF80500022001
:104780008DF8040000208DF8060002208DF8070047
:1047900069462648FCF776FF4FF480700090694622
:1047A0002248FCF76FFF4FF40070009069461F48E5
:1047B000FCF768FF052207211C48FCF7ABFF052228
:1047C00008211A48FCF7A6FF052209211748FCF723
:1047D000A1FF174800F094FF1548008800F0400042
:1047E00010BB0020ADF808004FF48270ADF80A004D
:1047F0000020ADF80C00ADF80E00ADF810004FF43D
:104800000070ADF812001820ADF814000020ADF8CB
:1048100016000720ADF8180002A9054800F0D3FFE4
:104820000121034800F060FF07B000BD0014024002
:104830000050014010B50F4C0F492068407C51F8E2
:10484000200060B1C16811B10968042903D0006873
:104850000028F7D103E0002818BFFDF7F5FB002181
:104860002068016600F108014161BDE8104000F0D8
:1048700031B800002C0100205801002001490968CE
:1048800049680847C4010020044909680A7C12F0FD
:10489000040F14BFC96B896B086070472C0100209E
:1048A00030B50A4C054683B02068417C084850F872
:1048B0002100C1680A6B6946904720686A4629460C
:1048C0000830FEF7D6FB03B030BD00002C010020FD
:1048D000580100200448016804484A7C083150F817
:1048E0002200C268126B10472C01002058010020E2
:1048F0000149096809680847C4010020044909689A
:104900000A7C12F0040F14BF896BC96B08607047F2
:104910002C010020014AC2E9000170477401002007
:104920000149096889680847C401002001490860F5
:10493000704700008C000020F8B515460E46012493
:10494000FDF7A2FB009058B1C0681021426A68468A
:104950009047030004D02A46314600989847002427
:104960002046F8BD38B94FF05041064A1160002189
:10497000054A116005E00549024A11600121024A19
:10498000116070479400002098000020000005D0BE
:10499000F8B515460E460124FDF776FB009058B198
:1049A000C0680B21426A68469047030004D02A463B
:1049B00031460098984700242046F8BDF8B51546C2
:1049C0000E460124FDF760FB009058B1C0680A2133
:1049D000426A68469047030004D02A463146009850
:1049E000984700242046F8BD10B5074C2068006B9E
:1049F000FFF786F8FFF782FF2068406BFFF780F82B
:104A0000BDE81040FFF740BF2C01002010B5044660
:104A100000224FF400510E48FFF7A8F80020FFF7DE
:104A20005FF821460B4800F0CCFE00BF0221094888
:104A300000F0BEFE0028F9D000BF8021054800F03C
:104A4000B7FE0028F9D10120FFF74AF810BD000099
:104A5000000C02400050014010B5044601225103F1
:104A60000D48FFF783F80020FFF73AF821460B487E
:104A700000F0A7FE00BF0221084800F099FE0028C0
:104A8000F9D000BF8021054800F092FE0028F9D13E
:104A90000120FFF725F810BD000C02400050014036
:104AA00010B500231A4609490948FDF7EFF90446F5
:104AB00000BF4FF4A072F0210020FFF769FF4FF410
:104AC000A072F0210020FFF779FF10BD94D80008F4
:104AD00014D8000810B503461446012901D100205E
:104AE00010BD4FF0FF3200BF00BF1046F8E70000D6
:104AF0002DE9FF4F8DB07A4ADDF868A01C9E209802
:104B00001268A2B1DDE91D03DDF87CC0CDF814C048
:104B10000296CDE903031B98CDE900A0D2F800C0AE
:104B2000DDE90F230D98E04711B0BDE8F08F109A32
:104B30000F9B0A44551E0D9A6A4C1A44A2F1010CAF
:104B40001B9A4AEA0202012A24D0C6F10800059005
:104B500000200890109802910028DCBF11B0BDE839
:104B6000F08F1B99029808440990401E009021681C
:104B7000B1F90A2082427DDCB1F90E100298884218
:104B800078DC1E980B900F980D9D4FF000080028C0
:104B900063DC94E02268B2F90A40631A002B0DDD51
:104BA0001099C91A10910029DCBF11B0BDE8F08F2F
:104BB0002146DDE91D4703FB04731E93B2F90E3055
:104BC000EB1A002B07DD109CE31A1093002BDCBFBF
:104BD00011B0BDE8F08FB2F90C30ACEB0303002B41
:104BE00004DDDDF83CC0ACEB03030F930D9BA3EB9E
:104BF000000CB2F9083063450FDDA3EB0C040F9DE8
:104C000023182C1B0F941E9C181A20F0070004EB8D
:104C1000E304844403F007001E940F9B002BDCBFC9
:104C200011B0BDE8F08FDDE91D341F9D059502939D
:104C3000CDE903401098CDE90006527C2A480F9B2D
:104C400050F82200C26854680A466146A04711B075
:104C5000BDE8F08FB9F1000F05D10B984FF00809AE
:104C600010F8017B0B90059837FA00F007FA06F16F
:104C7000CFB200E023E0A9EB060904D12168097C4A
:104C800011F0020F15D121681F9AC96B002AD1F8C3
:104C900000B018BF52F82000086005EB0A00421E61
:104CA0002846009B0299FFF7DFF92068C06BC0F827
:104CB00000B00F9808F1010855448045CADB0898F8
:104CC000401C089009980290DDE91D1008441E90D0
:104CD000089910988142FFF644AF11B0BDE8F08FFB
:104CE000640100202C01002058010020002808BF8A
:104CF000704730F0010104BF0120704730F003011C
:104D000004BF0220704730F0070104BF0320704742
:104D100030F00F0104BF0420704730F01F0104BFC2
:104D20000520704730F0FF0104BF08207047410A9A
:104D300018BF5FEA10310ED0C10B18BF5FEA1041F7
:104D400009D0810C04BF1220704710F07F4F0CBFB8
:104D5000182020207047102070470021002830D0F4
:104D600030F0010208BF01213AD030F0030208BF41
:104D7000022026D030F0070208BF032021D030F0F7
:104D80000F0208BF04201CD030F01F0208BF05200E
:104D900017D030F0FF0208BF082012D0420A18BF17
:104DA0005FEA10321ED0C20B18BF5FEA104219D062
:104DB000820C08BF122004D010F07F4F18BF2020B3
:104DC0000DD0821E062A98BF082109D9A0F1090238
:104DD000072A98BF102103D911380F2800D82021A5
:104DE000084670471020ECE730B10749096841F0E8
:104DF0000101054A116005E00349096821F001013C
:104E0000014A1160704700001868014030B107493D
:104E1000096841F48031054A116005E003490968D9
:104E200021F48031014A1160704700001868014088
:104E3000F0B50021002200230024002500265B4F4E
:104E40003F68DFF86CC107EA0C07DFF860C1CCF8F7
:104E50000070078A390467463F68D0F814C04CEAEE
:104E6000010C47EA0C07DFF844C1CCF800700CF1E4
:104E700004073F68DFF838C107EA0C07DFF82CC1E8
:104E80000CF1040CCCF80070078B3A0467463F68BD
:104E9000D0F81CC04CEA020C47EA0C07DFF80CC142
:104EA0000CF1040CCCF800700CF104073F68DFF83B
:104EB00000C107EA0C07DFF8F4C00CF1080CCCF8CD
:104EC0000070078C3B0467463F68D0F824C04CEA6A
:104ED000030C47EA0C07DFF8D4C00CF1080CCCF83F
:104EE00000700CF104073F68DFF8C4C007EA0C0744
:104EF000DFF8B8C00CF10C0CCCF80070078D3C0446
:104F00006746D7F800C0C76A27434CEA070C274F0B
:104F10000C37C7F800C03F1D3F68DFF898C007EAAC
:104F20000C07DFF888C00CF1100CCCF80070D0E949
:104F3000007C47EA0C07D0F808C047EA0C07D0F815
:104F40000CC047EA0C07DFF864C00CF1100CDCF869
:104F500000C047EA0C07DFF854C00CF1100CCCF885
:104F60000070476B3D02078E3E04104F24373F68A8
:104F700007F07F47DFF834C00CF1240CCCF8007048
:104F800046EA0507D0F838C047EA0C07DFF81CC02E
:104F90000CF1240CDCF800C047EA0C07DFF80CC069
:104FA0000CF1240CCCF80070F0BD00000868014042
:104FB00000F800F08F88FE0F21B1026842F0010274
:104FC000026003E0026822F00102026070472DE9EE
:104FD000F041002400250026002200270023B1F81C
:104FE00004C04FEA0C44D0F804C00CF4704CC0F874
:104FF00004C0D1F800C04CEA040CC0F804C0B1F8F9
:105000000CC04FEA0C45D0F808C00CF4704CC0F846
:1050100008C0D1F808C04CEA050CC0F808C0D0F8A8
:1050200010C02CF0070CC0F810C0D1F810C0C0F8A8
:1050300010C0D1F81CC04FEA0C26B1F820C04FEACE
:105040000C4291F824C04FEA0C67D0F818C09C4677
:10505000C0F818C0D1F818C04CEA060C4CEA020C93
:105060004CEA070CC0F818C0D0F814C02CF0FF0CA4
:10507000C0F814C0D1F814C0C0F814C0D0F81CC0D7
:1050800040F207782CEA080CC0F81CC0D1E90AC825
:105090004CEA080CC0F81CC0D0F828C09C46C0F8E8
:1050A00028C0D1F830C0C0F828C0B1F838C04FEAE5
:1050B0000C43D0F82CC00CF0E02CC0F82CC0D1F878
:1050C00034C04CEA030CC0F82CC0D0F830C06FF3E9
:1050D0000A0CC0F830C0D1F83CC0C0F830C0BDE800
:1050E000F081000001490860704700002468014019
:1050F00000BFFEE77047000070B5002100230F22BB
:10510000C4781CB3174C246804F4E064C4F5E0646C
:10511000C4F30721C1F10404E3B20A4144789C407E
:10512000E1B28478144021430C07210E0E4C05781F
:105130006155047804F01F050124AC4005786D1119
:10514000AD0005F1E025C5F8004109E0047804F060
:105150001F050124AC40054D0678761145F8264020
:1051600070BD00000CED00E000E400E080E100E034
:1051700029B1064A12680243044B1A6004E0034A4C
:1051800012688243014B1A607047000030380240B9
:1051900029B1064A12680243044B1A6004E0034A2C
:1051A00012688243014B1A607047000010380240B9
:1051B00029B1064A12680243044B1A6004E0034A0C
:1051C00012688243014B1A60704700003838024071
:1051D00029B1064A12680243044B1A6004E0034AEC
:1051E00012688243014B1A60704700004038024049
:1051F00029B1064A12680243044B1A6004E0034ACC
:1052000012688243014B1A60704700002038024048
:1052100029B1064A12680243044B1A6004E0034AAB
:1052200012688243014B1A60704700004438024004
:1052300029B1064A12680243044B1A6004E0034A8B
:1052400012688243014B1A60704700002438024004
:10525000F0B5002100220024022500260223324F4F
:105260003F6807F00C0121B1042905D0082937D186
:1052700005E02E4F076036E02D4F076033E02A4FE0
:105280003F1F3F68C7F38056274F3F1F3F6807F017
:105290003F036EB1264FB7FBF3F7DFF88CC0ACF1DC
:1052A000040CDCF800C0CCF3881C07FB0CF40CE009
:1052B0001E4FB7FBF3F7DFF870C0ACF1040CDCF85D
:1052C00000C0CCF3881C07FB0CF4174F3F1F3F684E
:1052D000C7F301477F1C7D00B4FBF5F7076002E0D0
:1052E000124F076000BF00BF0F4F3F6807F0F0018B
:1052F0000909104F7A5C0768D74047600A4F3F683A
:1053000007F4E051890A0B4F7A5C4768D740876001
:10531000054F3F6807F46041490B064F7A5C4768C8
:10532000D740C760F0BD0000083802400024F400F8
:1053300000127A002400002010B50146002200234C
:1053400000204A11012A02D10A4C236808E0022AEF
:1053500003D1084C7034236802E0064C743423688F
:1053600001F01F02012494401C400CB1012000E018
:10537000002010BD0038024001460020034A10689A
:1053800020F4403008431060704700008C38024021
:1053900001490867704700000000474210B58301CB
:1053A00043EA016343EA0273014C236010BD00002D
:1053B000883802401CB501217E20FFF7D9FE02206B
:1053C0008DF804008DF8050000208DF806008DF89A
:1053D00007000C2205217248FCF79CF90C220621DB
:1053E0006F48FCF797F96020009069466C48FCF71D
:1053F00049F90C2200216B48FCF78CF90120009040
:1054000069466848FCF73EF90C2200216648FCF723
:1054100081F90C2201216448FCF77CF90C22082157
:105420006148FCF777F90C2209215F48FCF772F913
:105430000C220A215C48FCF76DF90C220E215A4817
:10544000FCF768F90C220F215748FCF763F94CF27E
:105450000370009069465448FCF714F90C220021AF
:105460005248FCF757F90C2201215048FCF752F939
:105470000C2207214D48FCF74DF90C2208214B481E
:10548000FCF748F90C2209214848FCF743F90C22A3
:105490000A214648FCF73EF90C220B214348FCF751
:1054A00039F90C2211464148FCF734F90C220D2140
:1054B0003E48FCF72FF90C220E213C48FCF72AF954
:1054C0000C220F213948FCF725F94FF68370009024
:1054D00069463648FCF7D6F80C2200213448FCF720
:1054E00019F90C2201213248FCF714F90C2202218F
:1054F0002F48FCF70FF90C2203212D48FCF70AF97D
:105500000C2204212A48FCF705F90C220521284821
:10551000FCF700F90C220B212548FCF7FBF80C22C4
:1055200011462348FCF7F6F80C220D212048FCF721
:10553000F1F80C220E211E48FCF7ECF80C220F218A
:105540001B48FCF7E7F84FF63F0000906946184803
:10555000FCF798F80C2200211648FCF7DBF80C2227
:1055600001211448FCF7D6F80C2204211148FCF75D
:10557000D1F80C2205210F48FCF7CCF80C220821A9
:105580000C48FCF7C7F80C220F210A48FCF7C2F8B8
:1055900048F23310009069460648FCF773F81CBDCA
:1055A0000004024000080240000C024000100240CB
:1055B000001402400018024000B593B0FFF7FAFE55
:1055C00001210846FFF7F4FD022001900720029018
:1055D0000420039007200490022005900690079075
:1055E000012008900020099004200A9010200B90C0
:1055F00040200C904FF4C0700D9000200E904FF49E
:1056000000600F90002010904FF40050119001A8FE
:10561000129008A8FBF7F8FA00F002F813B000BDEA
:105620001FB5002401200090082001900120029065
:105630000020039000BF20210120FBF7B1FA0028D1
:10564000F9D16846FBF7D0FA0A2003F0EDF9022001
:10565000009008200190012002900020039000BFDC
:1056600020210120FBF79CFA0028F9D16846FBF7BE
:10567000BBFA032000900820019004200290002033
:10568000039000BF20210120FBF78AFA0028F9D1FE
:105690006846FBF7A9FA00BF20210120FBF780FA3A
:1056A0000028F9D16846FBF79FFA40F23124042024
:1056B00000900820019001200290039400BF202157
:1056C0000120FBF76DFA0028F9D16846FBF78CFA48
:1056D00040F26A50FBF714FB00BF20210120FBF7CA
:1056E0005FFA0028F9D11FBD21B1028842F04002C3
:1056F000028004E002884FF6BF731A4002807047B0
:1057000010B504462448844208D101218014FFF7D3
:105710008FFD0021A014FFF78BFD3CE01F48844261
:1057200008D101210014FFF763FD00212014FFF7C9
:105730005FFD30E01A48844208D10121C013FFF711
:1057400057FD0021E013FFF753FD24E01548844284
:1057500008D101214014FFF76BFD00216014FFF711
:1057600067FD18E01048844209D101210805FFF7C0
:105770005FFD00214FF48010FFF75AFD0BE00B484E
:10578000844208D101214805FFF752FD00214FF462
:105790000010FFF74DFD10BD003001400038004003
:1057A000003C0040003401400050014000540140E2
:1057B0000246002013890B400BB1012000E00020BD
:1057C00070478181704710B50022028802F441526F
:1057D0000B884C8823438C882343CC8823430C8933
:1057E00023434C8923438C892343CC8923431A4385
:1057F0000280838B4FF2FF74234083830B8A0382E2
:1058000010BD00001CB504460E4951F824000121CA
:10581000FFF7AEFC0C4830F81400009001208DF822
:10582000040000208DF8060001208DF807000220FA
:105830008DF80500054951F824006946FBF722FF61
:105840001CBD00002CAE000828AE0008340000206B
:10585000064951F820104969054A32F81020514094
:10586000024A52F8202051617047000034000020A5
:1058700028AE000830B585B004460D46214951F8E0
:1058800024000121FFF774FC01218803FFF7C0FC0D
:1058900000208DF8100002208DF813001A4830F80F
:1058A00014000390194951F8240003A9FBF7EAFEFC
:1058B000012D24D1164A115D164A105D00F030F812
:1058C000154830F81400019000208DF808000820D9
:1058D0008DF8090001208DF80A0001A8FBF716F9E0
:1058E0000E48005D8DF800000F208DF801008DF846
:1058F000020001208DF803006846FFF7FDFB05B0AC
:1059000030BD000038AE000834AE00083C00002076
:105910003FAE00083EAE00083CAE000840AE0008B6
:1059200030B500228B071C0F0F2303FA04F20B4B38
:105930008C1053F824309343084C8D1044F82530D4
:1059400023468C1053F824308C07240F00FA04F4FB
:105950002343024C8D1044F8253030BD08380140F7
:105960000CB50020019000904248006840F480305F
:105970004049086000BF3F48006800F400300090D4
:105980000198401C0190009818B90198B0F5A04FFB
:10599000F1D13848006800F4003010B101200090C7
:1059A00001E0002000900098012803D132483149DD
:1059B000091D08602F484030006840F080502D4994
:1059C000403108602D48006840F440402B49086091
:1059D00028480830006827490831086008460068F0
:1059E00040F4004008600846006840F4A050086099
:1059F0002048006840F080701E49086000BF1D48C4
:105A0000006800F000700028F9D01C48006840F4DD
:105A100080301A49086000BF1848406800F48030A0
:105A20000028F9D01548006840F400301349086098
:105A300000BF1248406800F400300028F9D040F25E
:105A400005700F4908600B480830006820F003001B
:105A50000849083108600846006840F00200086004
:105A600000BF04480830006800F00C000828F8D196
:105A70000CBD000000380240085A4007007000408A
:105A8000003C024010B500BF502080F31188BFF3E6
:105A90004F8FBFF36F8F00BF04F012FF18B14FF0AC
:105AA00080500449086000BF002080F3118800BFC7
:105AB00010BD000004ED00E010B51548006840F48A
:105AC0007000134908601348006840F00100114954
:105AD000086000200F49083108600E4800680E4930
